{
  "_format": "hh-sol-artifact-1",
  "contractName": "Layer2Scaling",
  "sourceName": "contracts/Layer2Scaling.sol",
  "abi": [
    {
      "inputs": [],
      "stateMutability": "nonpayable",
      "type": "constructor"
    },
    {
      "anonymous": false,
      "inputs": [
        {
          "indexed": true,
          "internalType": "address",
          "name": "previousAdmin",
          "type": "address"
        },
        {
          "indexed": true,
          "internalType": "address",
          "name": "newAdmin",
          "type": "address"
        }
      ],
      "name": "AdminChanged",
      "type": "event"
    },
    {
      "anonymous": false,
      "inputs": [
        {
          "indexed": true,
          "internalType": "uint256",
          "name": "batchId",
          "type": "uint256"
        }
      ],
      "name": "BatchFinalized",
      "type": "event"
    },
    {
      "anonymous": false,
      "inputs": [
        {
          "indexed": true,
          "internalType": "uint256",
          "name": "batchId",
          "type": "uint256"
        },
        {
          "indexed": false,
          "internalType": "bytes32",
          "name": "transactionsRoot",
          "type": "bytes32"
        }
      ],
      "name": "BatchSubmitted",
      "type": "event"
    },
    {
      "anonymous": false,
      "inputs": [
        {
          "indexed": true,
          "internalType": "uint256",
          "name": "batchId",
          "type": "uint256"
        }
      ],
      "name": "BatchVerified",
      "type": "event"
    },
    {
      "anonymous": false,
      "inputs": [
        {
          "indexed": true,
          "internalType": "address",
          "name": "user",
          "type": "address"
        },
        {
          "indexed": false,
          "internalType": "uint256",
          "name": "penalty",
          "type": "uint256"
        }
      ],
      "name": "FraudPenaltyApplied",
      "type": "event"
    },
    {
      "anonymous": false,
      "inputs": [
        {
          "indexed": true,
          "internalType": "uint256",
          "name": "batchId",
          "type": "uint256"
        },
        {
          "indexed": false,
          "internalType": "bytes32",
          "name": "fraudProof",
          "type": "bytes32"
        }
      ],
      "name": "FraudReported",
      "type": "event"
    },
    {
      "anonymous": false,
      "inputs": [
        {
          "indexed": true,
          "internalType": "address",
          "name": "user",
          "type": "address"
        },
        {
          "indexed": false,
          "internalType": "uint256",
          "name": "amount",
          "type": "uint256"
        }
      ],
      "name": "FundsDeposited",
      "type": "event"
    },
    {
      "anonymous": false,
      "inputs": [
        {
          "indexed": true,
          "internalType": "address",
          "name": "user",
          "type": "address"
        },
        {
          "indexed": false,
          "internalType": "uint256",
          "name": "amount",
          "type": "uint256"
        }
      ],
      "name": "FundsWithdrawn",
      "type": "event"
    },
    {
      "anonymous": false,
      "inputs": [
        {
          "indexed": true,
          "internalType": "address",
          "name": "operator",
          "type": "address"
        }
      ],
      "name": "OperatorAdded",
      "type": "event"
    },
    {
      "anonymous": false,
      "inputs": [
        {
          "indexed": true,
          "internalType": "address",
          "name": "operator",
          "type": "address"
        }
      ],
      "name": "OperatorRemoved",
      "type": "event"
    },
    {
      "inputs": [
        {
          "internalType": "address",
          "name": "operator",
          "type": "address"
        }
      ],
      "name": "addOperator",
      "outputs": [],
      "stateMutability": "nonpayable",
      "type": "function"
    },
    {
      "inputs": [],
      "name": "admin",
      "outputs": [
        {
          "internalType": "address",
          "name": "",
          "type": "address"
        }
      ],
      "stateMutability": "view",
      "type": "function"
    },
    {
      "inputs": [
        {
          "internalType": "address",
          "name": "",
          "type": "address"
        }
      ],
      "name": "balances",
      "outputs": [
        {
          "internalType": "uint256",
          "name": "",
          "type": "uint256"
        }
      ],
      "stateMutability": "view",
      "type": "function"
    },
    {
      "inputs": [
        {
          "internalType": "address[]",
          "name": "recipients",
          "type": "address[]"
        },
        {
          "internalType": "uint256[]",
          "name": "amounts",
          "type": "uint256[]"
        }
      ],
      "name": "batchTransfer",
      "outputs": [],
      "stateMutability": "payable",
      "type": "function"
    },
    {
      "inputs": [
        {
          "internalType": "uint256",
          "name": "",
          "type": "uint256"
        }
      ],
      "name": "batches",
      "outputs": [
        {
          "internalType": "uint256",
          "name": "batchId",
          "type": "uint256"
        },
        {
          "internalType": "bytes32",
          "name": "transactionsRoot",
          "type": "bytes32"
        },
        {
          "internalType": "uint256",
          "name": "timestamp",
          "type": "uint256"
        },
        {
          "internalType": "bool",
          "name": "verified",
          "type": "bool"
        },
        {
          "internalType": "bool",
          "name": "finalized",
          "type": "bool"
        }
      ],
      "stateMutability": "view",
      "type": "function"
    },
    {
      "inputs": [
        {
          "internalType": "address",
          "name": "newAdmin",
          "type": "address"
        }
      ],
      "name": "changeAdmin",
      "outputs": [],
      "stateMutability": "nonpayable",
      "type": "function"
    },
    {
      "inputs": [],
      "name": "depositFunds",
      "outputs": [],
      "stateMutability": "payable",
      "type": "function"
    },
    {
      "inputs": [
        {
          "internalType": "uint256",
          "name": "_batchId",
          "type": "uint256"
        }
      ],
      "name": "finalizeBatch",
      "outputs": [],
      "stateMutability": "nonpayable",
      "type": "function"
    },
    {
      "inputs": [
        {
          "internalType": "address",
          "name": "",
          "type": "address"
        }
      ],
      "name": "isOperator",
      "outputs": [
        {
          "internalType": "bool",
          "name": "",
          "type": "bool"
        }
      ],
      "stateMutability": "view",
      "type": "function"
    },
    {
      "inputs": [],
      "name": "nextBatchId",
      "outputs": [
        {
          "internalType": "uint256",
          "name": "",
          "type": "uint256"
        }
      ],
      "stateMutability": "view",
      "type": "function"
    },
    {
      "inputs": [
        {
          "internalType": "address",
          "name": "operator",
          "type": "address"
        }
      ],
      "name": "removeOperator",
      "outputs": [],
      "stateMutability": "nonpayable",
      "type": "function"
    },
    {
      "inputs": [
        {
          "internalType": "uint256",
          "name": "_batchId",
          "type": "uint256"
        },
        {
          "internalType": "bytes32",
          "name": "_fraudProof",
          "type": "bytes32"
        },
        {
          "components": [
            {
              "internalType": "address",
              "name": "sender",
              "type": "address"
            },
            {
              "internalType": "address",
              "name": "recipient",
              "type": "address"
            },
            {
              "internalType": "uint256",
              "name": "amount",
              "type": "uint256"
            }
          ],
          "internalType": "struct Layer2Scaling.Transaction",
          "name": "_tx",
          "type": "tuple"
        },
        {
          "internalType": "bytes32[]",
          "name": "_merkleProof",
          "type": "bytes32[]"
        }
      ],
      "name": "reportFraud",
      "outputs": [],
      "stateMutability": "nonpayable",
      "type": "function"
    },
    {
      "inputs": [],
      "name": "slashingPenalty",
      "outputs": [
        {
          "internalType": "uint256",
          "name": "",
          "type": "uint256"
        }
      ],
      "stateMutability": "view",
      "type": "function"
    },
    {
      "inputs": [
        {
          "internalType": "bytes32[]",
          "name": "_transactionsRoots",
          "type": "bytes32[]"
        }
      ],
      "name": "submitBatch",
      "outputs": [],
      "stateMutability": "nonpayable",
      "type": "function"
    },
    {
      "inputs": [
        {
          "internalType": "uint256",
          "name": "_batchId",
          "type": "uint256"
        }
      ],
      "name": "verifyBatch",
      "outputs": [],
      "stateMutability": "nonpayable",
      "type": "function"
    },
    {
      "inputs": [
        {
          "internalType": "uint256",
          "name": "_amount",
          "type": "uint256"
        }
      ],
      "name": "withdrawFunds",
      "outputs": [],
      "stateMutability": "nonpayable",
      "type": "function"
    },
    {
      "stateMutability": "payable",
      "type": "receive"
    }
  ],
  "bytecode": "0x608060405266b1a2bc2ec5000060035534801561001b57600080fd5b5033600460006101000a81548173ffffffffffffffffffffffffffffffffffffffff021916908373ffffffffffffffffffffffffffffffffffffffff160217905550600180819055506001600560003373ffffffffffffffffffffffffffffffffffffffff1673ffffffffffffffffffffffffffffffffffffffff16815260200190815260200160002060006101000a81548160ff021916908315150217905550612afd806100cb6000396000f3fe6080604052600436106100f75760003560e01c80638f2839701161008a578063dfe3a3ae11610059578063dfe3a3ae14610374578063e2c41dbc1461039d578063e33491a7146103a7578063f851a440146103d05761014c565b80638f283970146102b85780639870d7fe146102e1578063ac8a584a1461030a578063b32c4d8d146103335761014c565b80637f96af65116100c65780637f96af651461021d5780638462a7f81461024657806388d695b21461027157806389f1ea641461028d5761014c565b8063155dd5ee1461015157806327e235e31461017a578063602a693a146101b75780636d70f7ae146101e05761014c565b3661014c573373ffffffffffffffffffffffffffffffffffffffff167f543ba50a5eec5e6178218e364b1d0f396157b3c8fa278522c2cb7fd99407d47434604051610142919061188f565b60405180910390a2005b600080fd5b34801561015d57600080fd5b50610178600480360381019061017391906118ea565b6103fb565b005b34801561018657600080fd5b506101a1600480360381019061019c9190611975565b6105d0565b6040516101ae919061188f565b60405180910390f35b3480156101c357600080fd5b506101de60048036038101906101d99190611b31565b6105e8565b005b3480156101ec57600080fd5b5061020760048036038101906102029190611975565b61085d565b6040516102149190611b95565b60405180910390f35b34801561022957600080fd5b50610244600480360381019061023f9190611c19565b61087d565b005b34801561025257600080fd5b5061025b610b40565b604051610268919061188f565b60405180910390f35b61028b60048036038101906102869190611e22565b610b46565b005b34801561029957600080fd5b506102a2610d1c565b6040516102af919061188f565b60405180910390f35b3480156102c457600080fd5b506102df60048036038101906102da9190611975565b610d22565b005b3480156102ed57600080fd5b5061030860048036038101906103039190611975565b610ee7565b005b34801561031657600080fd5b50610331600480360381019061032c9190611975565b6110a2565b005b34801561033f57600080fd5b5061035a600480360381019061035591906118ea565b6112ec565b60405161036b959493929190611ea9565b60405180910390f35b34801561038057600080fd5b5061039b600480360381019061039691906118ea565b61133c565b005b6103a56114ba565b005b3480156103b357600080fd5b506103ce60048036038101906103c991906118ea565b6115a3565b005b3480156103dc57600080fd5b506103e5611723565b6040516103f29190611f0b565b60405180910390f35b6000600260003373ffffffffffffffffffffffffffffffffffffffff1673ffffffffffffffffffffffffffffffffffffffff16815260200190815260200160002054905081811015610482576040517f08c379a000000000000000000000000000000000000000000000000000000000815260040161047990611f83565b60405180910390fd5b818161048e9190611fd2565b600260003373ffffffffffffffffffffffffffffffffffffffff1673ffffffffffffffffffffffffffffffffffffffff1681526020019081526020016000208190555060003373ffffffffffffffffffffffffffffffffffffffff16836040516104f790612037565b60006040518083038185875af1925050503d8060008114610534576040519150601f19603f3d011682016040523d82523d6000602084013e610539565b606091505b505090508061057d576040517f08c379a000000000000000000000000000000000000000000000000000000000815260040161057490612098565b60405180910390fd5b3373ffffffffffffffffffffffffffffffffffffffff167feaff4b37086828766ad3268786972c0cd24259d4c87a80f9d3963a3c3d999b0d846040516105c3919061188f565b60405180910390a2505050565b60026020528060005260406000206000915090505481565b600560003373ffffffffffffffffffffffffffffffffffffffff1673ffffffffffffffffffffffffffffffffffffffff16815260200190815260200160002060009054906101000a900460ff168061068d5750600460009054906101000a900473ffffffffffffffffffffffffffffffffffffffff1673ffffffffffffffffffffffffffffffffffffffff163373ffffffffffffffffffffffffffffffffffffffff16145b6106cc576040517f08c379a00000000000000000000000000000000000000000000000000000000081526004016106c39061212a565b60405180910390fd5b6000815111610710576040517f08c379a000000000000000000000000000000000000000000000000000000000815260040161070790612196565b60405180910390fd5b60005b8151811015610859576040518060a001604052806001548152602001838381518110610742576107416121b6565b5b6020026020010151815260200142815260200160001515815260200160001515815250600080600154815260200190815260200160002060008201518160000155602082015181600101556040820151816002015560608201518160030160006101000a81548160ff02191690831515021790555060808201518160030160016101000a81548160ff0219169083151502179055509050506001547f54756ef60c2314d7eba772fa6c7ccb036cf55b8e9d95da41a50ec4cf28b3c736838381518110610811576108106121b6565b5b602002602001015160405161082691906121e5565b60405180910390a26001600081548092919061084190612200565b9190505550808061085190612200565b915050610713565b5050565b60056020528060005260406000206000915054906101000a900460ff1681565b83600080600083815260200190815260200160002060000154036108d6576040517f08c379a00000000000000000000000000000000000000000000000000000000081526004016108cd90612294565b60405180910390fd5b60008086815260200190815260200160002060030160009054906101000a900460ff1615610939576040517f08c379a000000000000000000000000000000000000000000000000000000000815260040161093090612326565b60405180910390fd5b60008086815260200190815260200160002060030160019054906101000a900460ff161561099c576040517f08c379a0000000000000000000000000000000000000000000000000000000008152600401610993906123b8565b60405180910390fd5b60006109aa86868686611749565b905080610ae257600354600260003373ffffffffffffffffffffffffffffffffffffffff1673ffffffffffffffffffffffffffffffffffffffff168152602001908152602001600020541015610a35576040517f08c379a0000000000000000000000000000000000000000000000000000000008152600401610a2c90612424565b60405180910390fd5b600354600260003373ffffffffffffffffffffffffffffffffffffffff1673ffffffffffffffffffffffffffffffffffffffff1681526020019081526020016000206000828254610a869190611fd2565b925050819055503373ffffffffffffffffffffffffffffffffffffffff167fcb97f678197099af4070ae1877f6e23ae7f39c83f03c5f841423542e89d2303a600354604051610ad5919061188f565b60405180910390a2610b00565b6000801b600080888152602001908152602001600020600101819055505b857fbc3c0e7347af80bfe43f887074fc7f1cbf950493435ef5d3c94362c76b2d2e1986604051610b3091906121e5565b60405180910390a2505050505050565b60015481565b8051825114610b8a576040517f08c379a0000000000000000000000000000000000000000000000000000000008152600401610b8190612490565b60405180910390fd5b6000805b8251811015610bd257828181518110610baa57610ba96121b6565b5b602002602001015182610bbd91906124b0565b91508080610bca90612200565b915050610b8e565b5080341015610c16576040517f08c379a0000000000000000000000000000000000000000000000000000000008152600401610c0d90612530565b60405180910390fd5b60005b8351811015610d16576000848281518110610c3757610c366121b6565b5b602002602001015173ffffffffffffffffffffffffffffffffffffffff16848381518110610c6857610c676121b6565b5b6020026020010151604051610c7c90612037565b60006040518083038185875af1925050503d8060008114610cb9576040519150601f19603f3d011682016040523d82523d6000602084013e610cbe565b606091505b5050905080610d02576040517f08c379a0000000000000000000000000000000000000000000000000000000008152600401610cf990612098565b60405180910390fd5b508080610d0e90612200565b915050610c19565b50505050565b60035481565b600460009054906101000a900473ffffffffffffffffffffffffffffffffffffffff1673ffffffffffffffffffffffffffffffffffffffff163373ffffffffffffffffffffffffffffffffffffffff1614610db2576040517f08c379a0000000000000000000000000000000000000000000000000000000008152600401610da9906125c2565b60405180910390fd5b600073ffffffffffffffffffffffffffffffffffffffff168173ffffffffffffffffffffffffffffffffffffffff1603610e21576040517f08c379a0000000000000000000000000000000000000000000000000000000008152600401610e189061262e565b60405180910390fd5b6000600460009054906101000a900473ffffffffffffffffffffffffffffffffffffffff16905081600460006101000a81548173ffffffffffffffffffffffffffffffffffffffff021916908373ffffffffffffffffffffffffffffffffffffffff1602179055508173ffffffffffffffffffffffffffffffffffffffff168173ffffffffffffffffffffffffffffffffffffffff167f7e644d79422f17c01e4894b5f4f588d331ebfa28653d42ae832dc59e38c9798f60405160405180910390a35050565b600460009054906101000a900473ffffffffffffffffffffffffffffffffffffffff1673ffffffffffffffffffffffffffffffffffffffff163373ffffffffffffffffffffffffffffffffffffffff1614610f77576040517f08c379a0000000000000000000000000000000000000000000000000000000008152600401610f6e906125c2565b60405180910390fd5b600560008273ffffffffffffffffffffffffffffffffffffffff1673ffffffffffffffffffffffffffffffffffffffff16815260200190815260200160002060009054906101000a900460ff1615611004576040517f08c379a0000000000000000000000000000000000000000000000000000000008152600401610ffb9061269a565b60405180910390fd5b6001600560008373ffffffffffffffffffffffffffffffffffffffff1673ffffffffffffffffffffffffffffffffffffffff16815260200190815260200160002060006101000a81548160ff0219169083151502179055508073ffffffffffffffffffffffffffffffffffffffff167fac6fa858e9350a46cec16539926e0fde25b7629f84b5a72bffaae4df888ae86d60405160405180910390a250565b600460009054906101000a900473ffffffffffffffffffffffffffffffffffffffff1673ffffffffffffffffffffffffffffffffffffffff163373ffffffffffffffffffffffffffffffffffffffff1614611132576040517f08c379a0000000000000000000000000000000000000000000000000000000008152600401611129906125c2565b60405180910390fd5b600460009054906101000a900473ffffffffffffffffffffffffffffffffffffffff1673ffffffffffffffffffffffffffffffffffffffff168173ffffffffffffffffffffffffffffffffffffffff16036111c2576040517f08c379a00000000000000000000000000000000000000000000000000000000081526004016111b990612706565b60405180910390fd5b600560008273ffffffffffffffffffffffffffffffffffffffff1673ffffffffffffffffffffffffffffffffffffffff16815260200190815260200160002060009054906101000a900460ff1661124e576040517f08c379a000000000000000000000000000000000000000000000000000000000815260040161124590612772565b60405180910390fd5b6000600560008373ffffffffffffffffffffffffffffffffffffffff1673ffffffffffffffffffffffffffffffffffffffff16815260200190815260200160002060006101000a81548160ff0219169083151502179055508073ffffffffffffffffffffffffffffffffffffffff167f80c0b871b97b595b16a7741c1b06fed0c6f6f558639f18ccbce50724325dc40d60405160405180910390a250565b60006020528060005260406000206000915090508060000154908060010154908060020154908060030160009054906101000a900460ff16908060030160019054906101000a900460ff16905085565b8060008060008381526020019081526020016000206000015403611395576040517f08c379a000000000000000000000000000000000000000000000000000000000815260040161138c90612294565b60405180910390fd5b60008083815260200190815260200160002060030160019054906101000a900460ff16156113f8576040517f08c379a00000000000000000000000000000000000000000000000000000000081526004016113ef906127de565b60405180910390fd5b60008083815260200190815260200160002060030160009054906101000a900460ff161561145b576040517f08c379a00000000000000000000000000000000000000000000000000000000081526004016114529061284a565b60405180910390fd5b600160008084815260200190815260200160002060030160006101000a81548160ff021916908315150217905550817f1ee066b0cc077ae247f731c0ad7cb81d140e8062773445294e6b74944ad455e360405160405180910390a25050565b600034116114fd576040517f08c379a00000000000000000000000000000000000000000000000000000000081526004016114f4906128dc565b60405180910390fd5b34600260003373ffffffffffffffffffffffffffffffffffffffff1673ffffffffffffffffffffffffffffffffffffffff168152602001908152602001600020600082825461154c91906124b0565b925050819055503373ffffffffffffffffffffffffffffffffffffffff167f543ba50a5eec5e6178218e364b1d0f396157b3c8fa278522c2cb7fd99407d47434604051611599919061188f565b60405180910390a2565b80600080600083815260200190815260200160002060000154036115fc576040517f08c379a00000000000000000000000000000000000000000000000000000000081526004016115f390612294565b60405180910390fd5b60008083815260200190815260200160002060030160019054906101000a900460ff161561165f576040517f08c379a000000000000000000000000000000000000000000000000000000000815260040161165690612948565b60405180910390fd5b62093a806000808481526020019081526020016000206002015461168391906124b0565b42116116c4576040517f08c379a00000000000000000000000000000000000000000000000000000000081526004016116bb906129b4565b60405180910390fd5b600160008084815260200190815260200160002060030160016101000a81548160ff021916908315150217905550817f5cff112f1cb588779b4e6aae6baf0d738747fcf132f0ff202adcec605f9cabdf60405160405180910390a25050565b600460009054906101000a900473ffffffffffffffffffffffffffffffffffffffff1681565b60008083600001518460200151856040015160405160200161176d93929190612a3d565b60405160208183030381529060405280519060200120905060008060008881526020019081526020016000206001015490506117aa8285836117c2565b80156117b65750818614155b92505050949350505050565b60008084905060005b84518110156118685760008582815181106117e9576117e86121b6565b5b6020026020010151905080831061182857808360405160200161180d929190612a9b565b60405160208183030381529060405280519060200120611852565b828160405160200161183b929190612a9b565b604051602081830303815290604052805190602001205b925050808061186090612200565b9150506117cb565b508281149150509392505050565b6000819050919050565b61188981611876565b82525050565b60006020820190506118a46000830184611880565b92915050565b6000604051905090565b600080fd5b600080fd5b6118c781611876565b81146118d257600080fd5b50565b6000813590506118e4816118be565b92915050565b600060208284031215611900576118ff6118b4565b5b600061190e848285016118d5565b91505092915050565b600073ffffffffffffffffffffffffffffffffffffffff82169050919050565b600061194282611917565b9050919050565b61195281611937565b811461195d57600080fd5b50565b60008135905061196f81611949565b92915050565b60006020828403121561198b5761198a6118b4565b5b600061199984828501611960565b91505092915050565b600080fd5b6000601f19601f8301169050919050565b7f4e487b7100000000000000000000000000000000000000000000000000000000600052604160045260246000fd5b6119f0826119a7565b810181811067ffffffffffffffff82111715611a0f57611a0e6119b8565b5b80604052505050565b6000611a226118aa565b9050611a2e82826119e7565b919050565b600067ffffffffffffffff821115611a4e57611a4d6119b8565b5b602082029050602081019050919050565b600080fd5b6000819050919050565b611a7781611a64565b8114611a8257600080fd5b50565b600081359050611a9481611a6e565b92915050565b6000611aad611aa884611a33565b611a18565b90508083825260208201905060208402830185811115611ad057611acf611a5f565b5b835b81811015611af95780611ae58882611a85565b845260208401935050602081019050611ad2565b5050509392505050565b600082601f830112611b1857611b176119a2565b5b8135611b28848260208601611a9a565b91505092915050565b600060208284031215611b4757611b466118b4565b5b600082013567ffffffffffffffff811115611b6557611b646118b9565b5b611b7184828501611b03565b91505092915050565b60008115159050919050565b611b8f81611b7a565b82525050565b6000602082019050611baa6000830184611b86565b92915050565b600080fd5b600060608284031215611bcb57611bca611bb0565b5b611bd56060611a18565b90506000611be584828501611960565b6000830152506020611bf984828501611960565b6020830152506040611c0d848285016118d5565b60408301525092915050565b60008060008060c08587031215611c3357611c326118b4565b5b6000611c41878288016118d5565b9450506020611c5287828801611a85565b9350506040611c6387828801611bb5565b92505060a085013567ffffffffffffffff811115611c8457611c836118b9565b5b611c9087828801611b03565b91505092959194509250565b600067ffffffffffffffff821115611cb757611cb66119b8565b5b602082029050602081019050919050565b6000611cdb611cd684611c9c565b611a18565b90508083825260208201905060208402830185811115611cfe57611cfd611a5f565b5b835b81811015611d275780611d138882611960565b845260208401935050602081019050611d00565b5050509392505050565b600082601f830112611d4657611d456119a2565b5b8135611d56848260208601611cc8565b91505092915050565b600067ffffffffffffffff821115611d7a57611d796119b8565b5b602082029050602081019050919050565b6000611d9e611d9984611d5f565b611a18565b90508083825260208201905060208402830185811115611dc157611dc0611a5f565b5b835b81811015611dea5780611dd688826118d5565b845260208401935050602081019050611dc3565b5050509392505050565b600082601f830112611e0957611e086119a2565b5b8135611e19848260208601611d8b565b91505092915050565b60008060408385031215611e3957611e386118b4565b5b600083013567ffffffffffffffff811115611e5757611e566118b9565b5b611e6385828601611d31565b925050602083013567ffffffffffffffff811115611e8457611e836118b9565b5b611e9085828601611df4565b9150509250929050565b611ea381611a64565b82525050565b600060a082019050611ebe6000830188611880565b611ecb6020830187611e9a565b611ed86040830186611880565b611ee56060830185611b86565b611ef26080830184611b86565b9695505050505050565b611f0581611937565b82525050565b6000602082019050611f206000830184611efc565b92915050565b600082825260208201905092915050565b7f496e73756666696369656e742062616c616e6365000000000000000000000000600082015250565b6000611f6d601483611f26565b9150611f7882611f37565b602082019050919050565b60006020820190508181036000830152611f9c81611f60565b9050919050565b7f4e487b7100000000000000000000000000000000000000000000000000000000600052601160045260246000fd5b6000611fdd82611876565b9150611fe883611876565b925082820390508181111561200057611fff611fa3565b5b92915050565b600081905092915050565b50565b6000612021600083612006565b915061202c82612011565b600082019050919050565b600061204282612014565b9150819050919050565b7f5472616e73666572206661696c65640000000000000000000000000000000000600082015250565b6000612082600f83611f26565b915061208d8261204c565b602082019050919050565b600060208201905081810360008301526120b181612075565b9050919050565b7f4f6e6c79206f70657261746f72732063616e2063616c6c20746869732066756e60008201527f6374696f6e000000000000000000000000000000000000000000000000000000602082015250565b6000612114602583611f26565b915061211f826120b8565b604082019050919050565b6000602082019050818103600083015261214381612107565b9050919050565b7f4261746368206d75737420636f6e7461696e207472616e73616374696f6e7300600082015250565b6000612180601f83611f26565b915061218b8261214a565b602082019050919050565b600060208201905081810360008301526121af81612173565b9050919050565b7f4e487b7100000000000000000000000000000000000000000000000000000000600052603260045260246000fd5b60006020820190506121fa6000830184611e9a565b92915050565b600061220b82611876565b91507fffffffffffffffffffffffffffffffffffffffffffffffffffffffffffffffff820361223d5761223c611fa3565b5b600182019050919050565b7f426174636820646f6573206e6f74206578697374000000000000000000000000600082015250565b600061227e601483611f26565b915061228982612248565b602082019050919050565b600060208201905081810360008301526122ad81612271565b9050919050565b7f43616e6e6f74207265706f7274206672617564206f6e2061207665726966696560008201527f6420626174636800000000000000000000000000000000000000000000000000602082015250565b6000612310602783611f26565b915061231b826122b4565b604082019050919050565b6000602082019050818103600083015261233f81612303565b9050919050565b7f43616e6e6f74207265706f7274206672617564206f6e20612066696e616c697a60008201527f6564206261746368000000000000000000000000000000000000000000000000602082015250565b60006123a2602883611f26565b91506123ad82612346565b604082019050919050565b600060208201905081810360008301526123d181612395565b9050919050565b7f496e73756666696369656e742062616c616e636520666f722070656e616c7479600082015250565b600061240e602083611f26565b9150612419826123d8565b602082019050919050565b6000602082019050818103600083015261243d81612401565b9050919050565b7f4d69736d61746368656420617272617973000000000000000000000000000000600082015250565b600061247a601183611f26565b915061248582612444565b602082019050919050565b600060208201905081810360008301526124a98161246d565b9050919050565b60006124bb82611876565b91506124c683611876565b92508282019050808211156124de576124dd611fa3565b5b92915050565b7f496e73756666696369656e74204554482073656e740000000000000000000000600082015250565b600061251a601583611f26565b9150612525826124e4565b602082019050919050565b600060208201905081810360008301526125498161250d565b9050919050565b7f4f6e6c792061646d696e2063616e2063616c6c20746869732066756e6374696f60008201527f6e00000000000000000000000000000000000000000000000000000000000000602082015250565b60006125ac602183611f26565b91506125b782612550565b604082019050919050565b600060208201905081810360008301526125db8161259f565b9050919050565b7f4e65772061646d696e2063616e6e6f74206265207a65726f2061646472657373600082015250565b6000612618602083611f26565b9150612623826125e2565b602082019050919050565b600060208201905081810360008301526126478161260b565b9050919050565b7f416c726561647920616e206f70657261746f7200000000000000000000000000600082015250565b6000612684601383611f26565b915061268f8261264e565b602082019050919050565b600060208201905081810360008301526126b381612677565b9050919050565b7f43616e6e6f742072656d6f76652061646d696e206173206f70657261746f7200600082015250565b60006126f0601f83611f26565b91506126fb826126ba565b602082019050919050565b6000602082019050818103600083015261271f816126e3565b9050919050565b7f4e6f7420616e206f70657261746f720000000000000000000000000000000000600082015250565b600061275c600f83611f26565b915061276782612726565b602082019050919050565b6000602082019050818103600083015261278b8161274f565b9050919050565b7f42617463682069732066696e616c697a65640000000000000000000000000000600082015250565b60006127c8601283611f26565b91506127d382612792565b602082019050919050565b600060208201905081810360008301526127f7816127bb565b9050919050565b7f426174636820616c726561647920766572696669656400000000000000000000600082015250565b6000612834601683611f26565b915061283f826127fe565b602082019050919050565b6000602082019050818103600083015261286381612827565b9050919050565b7f4465706f736974206d7573742062652067726561746572207468616e207a657260008201527f6f00000000000000000000000000000000000000000000000000000000000000602082015250565b60006128c6602183611f26565b91506128d18261286a565b604082019050919050565b600060208201905081810360008301526128f5816128b9565b9050919050565b7f426174636820616c72656164792066696e616c697a6564000000000000000000600082015250565b6000612932601783611f26565b915061293d826128fc565b602082019050919050565b6000602082019050818103600083015261296181612925565b9050919050565b7f4368616c6c656e676520706572696f64206e6f74206f76657200000000000000600082015250565b600061299e601983611f26565b91506129a982612968565b602082019050919050565b600060208201905081810360008301526129cd81612991565b9050919050565b60008160601b9050919050565b60006129ec826129d4565b9050919050565b60006129fe826129e1565b9050919050565b612a16612a1182611937565b6129f3565b82525050565b6000819050919050565b612a37612a3282611876565b612a1c565b82525050565b6000612a498286612a05565b601482019150612a598285612a05565b601482019150612a698284612a26565b602082019150819050949350505050565b6000819050919050565b612a95612a9082611a64565b612a7a565b82525050565b6000612aa78285612a84565b602082019150612ab78284612a84565b602082019150819050939250505056fea2646970667358221220d888c76ed77cbf103d576657fe15893cd40ce7a47376497b0e4ca514626504c164736f6c63430008140033",
  "linkReferences": {},
  "deployedLinkReferences": {}
}