{
  "_format": "hh-sol-artifact-1",
  "contractName": "Layer2Scaling",
  "sourceName": "contracts/Layer2Scaling.sol",
  "abi": [
    {
      "inputs": [],
      "stateMutability": "nonpayable",
      "type": "constructor"
    },
    {
      "anonymous": false,
      "inputs": [
        {
          "indexed": true,
          "internalType": "uint256",
          "name": "batchId",
          "type": "uint256"
        }
      ],
      "name": "BatchFinalized",
      "type": "event"
    },
    {
      "anonymous": false,
      "inputs": [
        {
          "indexed": true,
          "internalType": "uint256",
          "name": "batchId",
          "type": "uint256"
        },
        {
          "indexed": false,
          "internalType": "bytes32",
          "name": "transactionsRoot",
          "type": "bytes32"
        }
      ],
      "name": "BatchSubmitted",
      "type": "event"
    },
    {
      "anonymous": false,
      "inputs": [
        {
          "indexed": true,
          "internalType": "uint256",
          "name": "batchId",
          "type": "uint256"
        }
      ],
      "name": "BatchVerified",
      "type": "event"
    },
    {
      "anonymous": false,
      "inputs": [
        {
          "indexed": true,
          "internalType": "address",
          "name": "user",
          "type": "address"
        },
        {
          "indexed": false,
          "internalType": "uint256",
          "name": "penalty",
          "type": "uint256"
        }
      ],
      "name": "FraudPenaltyApplied",
      "type": "event"
    },
    {
      "anonymous": false,
      "inputs": [
        {
          "indexed": true,
          "internalType": "uint256",
          "name": "batchId",
          "type": "uint256"
        },
        {
          "indexed": false,
          "internalType": "bytes32",
          "name": "fraudProof",
          "type": "bytes32"
        }
      ],
      "name": "FraudReported",
      "type": "event"
    },
    {
      "anonymous": false,
      "inputs": [
        {
          "indexed": true,
          "internalType": "address",
          "name": "user",
          "type": "address"
        },
        {
          "indexed": false,
          "internalType": "uint256",
          "name": "amount",
          "type": "uint256"
        }
      ],
      "name": "FundsDeposited",
      "type": "event"
    },
    {
      "anonymous": false,
      "inputs": [
        {
          "indexed": true,
          "internalType": "address",
          "name": "user",
          "type": "address"
        },
        {
          "indexed": false,
          "internalType": "uint256",
          "name": "amount",
          "type": "uint256"
        }
      ],
      "name": "FundsWithdrawn",
      "type": "event"
    },
    {
      "inputs": [
        {
          "internalType": "address",
          "name": "",
          "type": "address"
        }
      ],
      "name": "balances",
      "outputs": [
        {
          "internalType": "uint256",
          "name": "",
          "type": "uint256"
        }
      ],
      "stateMutability": "view",
      "type": "function"
    },
    {
      "inputs": [
        {
          "internalType": "address[]",
          "name": "recipients",
          "type": "address[]"
        },
        {
          "internalType": "uint256[]",
          "name": "amounts",
          "type": "uint256[]"
        }
      ],
      "name": "batchTransfer",
      "outputs": [],
      "stateMutability": "payable",
      "type": "function"
    },
    {
      "inputs": [
        {
          "internalType": "uint256",
          "name": "",
          "type": "uint256"
        }
      ],
      "name": "batches",
      "outputs": [
        {
          "internalType": "uint256",
          "name": "batchId",
          "type": "uint256"
        },
        {
          "internalType": "bytes32",
          "name": "transactionsRoot",
          "type": "bytes32"
        },
        {
          "internalType": "uint256",
          "name": "timestamp",
          "type": "uint256"
        },
        {
          "internalType": "bool",
          "name": "verified",
          "type": "bool"
        },
        {
          "internalType": "bool",
          "name": "finalized",
          "type": "bool"
        }
      ],
      "stateMutability": "view",
      "type": "function"
    },
    {
      "inputs": [],
      "name": "depositFunds",
      "outputs": [],
      "stateMutability": "payable",
      "type": "function"
    },
    {
      "inputs": [
        {
          "internalType": "uint256",
          "name": "_batchId",
          "type": "uint256"
        }
      ],
      "name": "finalizeBatch",
      "outputs": [],
      "stateMutability": "nonpayable",
      "type": "function"
    },
    {
      "inputs": [],
      "name": "nextBatchId",
      "outputs": [
        {
          "internalType": "uint256",
          "name": "",
          "type": "uint256"
        }
      ],
      "stateMutability": "view",
      "type": "function"
    },
    {
      "inputs": [
        {
          "internalType": "uint256",
          "name": "_batchId",
          "type": "uint256"
        },
        {
          "internalType": "bytes32",
          "name": "_fraudProof",
          "type": "bytes32"
        },
        {
          "components": [
            {
              "internalType": "address",
              "name": "sender",
              "type": "address"
            },
            {
              "internalType": "address",
              "name": "recipient",
              "type": "address"
            },
            {
              "internalType": "uint256",
              "name": "amount",
              "type": "uint256"
            }
          ],
          "internalType": "struct Layer2Scaling.Transaction",
          "name": "_tx",
          "type": "tuple"
        },
        {
          "internalType": "bytes32[]",
          "name": "_merkleProof",
          "type": "bytes32[]"
        }
      ],
      "name": "reportFraud",
      "outputs": [],
      "stateMutability": "nonpayable",
      "type": "function"
    },
    {
      "inputs": [],
      "name": "slashingPenalty",
      "outputs": [
        {
          "internalType": "uint256",
          "name": "",
          "type": "uint256"
        }
      ],
      "stateMutability": "view",
      "type": "function"
    },
    {
      "inputs": [
        {
          "internalType": "bytes32[]",
          "name": "_transactionsRoots",
          "type": "bytes32[]"
        }
      ],
      "name": "submitBatch",
      "outputs": [],
      "stateMutability": "nonpayable",
      "type": "function"
    },
    {
      "inputs": [
        {
          "internalType": "uint256",
          "name": "_batchId",
          "type": "uint256"
        }
      ],
      "name": "verifyBatch",
      "outputs": [],
      "stateMutability": "nonpayable",
      "type": "function"
    },
    {
      "inputs": [
        {
          "internalType": "uint256",
          "name": "_amount",
          "type": "uint256"
        }
      ],
      "name": "withdrawFunds",
      "outputs": [],
      "stateMutability": "nonpayable",
      "type": "function"
    },
    {
      "stateMutability": "payable",
      "type": "receive"
    }
  ],
  "bytecode": "0x608060405266b1a2bc2ec5000060035534801561001b57600080fd5b5060018081905550611fb6806100326000396000f3fe6080604052600436106100a05760003560e01c806388d695b21161006457806388d695b2146101dd57806389f1ea64146101f9578063b32c4d8d14610224578063dfe3a3ae14610265578063e2c41dbc1461028e578063e33491a714610298576100f5565b8063155dd5ee146100fa57806327e235e314610123578063602a693a146101605780637f96af65146101895780638462a7f8146101b2576100f5565b366100f5573373ffffffffffffffffffffffffffffffffffffffff167f543ba50a5eec5e6178218e364b1d0f396157b3c8fa278522c2cb7fd99407d474346040516100eb9190611061565b60405180910390a2005b600080fd5b34801561010657600080fd5b50610121600480360381019061011c91906110bc565b6102c1565b005b34801561012f57600080fd5b5061014a60048036038101906101459190611147565b610496565b6040516101579190611061565b60405180910390f35b34801561016c57600080fd5b5061018760048036038101906101829190611303565b6104ae565b005b34801561019557600080fd5b506101b060048036038101906101ab91906113b5565b61063f565b005b3480156101be57600080fd5b506101c7610902565b6040516101d49190611061565b60405180910390f35b6101f760048036038101906101f291906115be565b610908565b005b34801561020557600080fd5b5061020e610ade565b60405161021b9190611061565b60405180910390f35b34801561023057600080fd5b5061024b600480360381019061024691906110bc565b610ae4565b60405161025c959493929190611660565b60405180910390f35b34801561027157600080fd5b5061028c600480360381019061028791906110bc565b610b34565b005b610296610cb2565b005b3480156102a457600080fd5b506102bf60048036038101906102ba91906110bc565b610d9b565b005b6000600260003373ffffffffffffffffffffffffffffffffffffffff1673ffffffffffffffffffffffffffffffffffffffff16815260200190815260200160002054905081811015610348576040517f08c379a000000000000000000000000000000000000000000000000000000000815260040161033f90611710565b60405180910390fd5b8181610354919061175f565b600260003373ffffffffffffffffffffffffffffffffffffffff1673ffffffffffffffffffffffffffffffffffffffff1681526020019081526020016000208190555060003373ffffffffffffffffffffffffffffffffffffffff16836040516103bd906117c4565b60006040518083038185875af1925050503d80600081146103fa576040519150601f19603f3d011682016040523d82523d6000602084013e6103ff565b606091505b5050905080610443576040517f08c379a000000000000000000000000000000000000000000000000000000000815260040161043a90611825565b60405180910390fd5b3373ffffffffffffffffffffffffffffffffffffffff167feaff4b37086828766ad3268786972c0cd24259d4c87a80f9d3963a3c3d999b0d846040516104899190611061565b60405180910390a2505050565b60026020528060005260406000206000915090505481565b60008151116104f2576040517f08c379a00000000000000000000000000000000000000000000000000000000081526004016104e990611891565b60405180910390fd5b60005b815181101561063b576040518060a001604052806001548152602001838381518110610524576105236118b1565b5b6020026020010151815260200142815260200160001515815260200160001515815250600080600154815260200190815260200160002060008201518160000155602082015181600101556040820151816002015560608201518160030160006101000a81548160ff02191690831515021790555060808201518160030160016101000a81548160ff0219169083151502179055509050506001547f54756ef60c2314d7eba772fa6c7ccb036cf55b8e9d95da41a50ec4cf28b3c7368383815181106105f3576105f26118b1565b5b602002602001015160405161060891906118e0565b60405180910390a260016000815480929190610623906118fb565b91905055508080610633906118fb565b9150506104f5565b5050565b8360008060008381526020019081526020016000206000015403610698576040517f08c379a000000000000000000000000000000000000000000000000000000000815260040161068f9061198f565b60405180910390fd5b60008086815260200190815260200160002060030160009054906101000a900460ff16156106fb576040517f08c379a00000000000000000000000000000000000000000000000000000000081526004016106f290611a21565b60405180910390fd5b60008086815260200190815260200160002060030160019054906101000a900460ff161561075e576040517f08c379a000000000000000000000000000000000000000000000000000000000815260040161075590611ab3565b60405180910390fd5b600061076c86868686610f1b565b9050806108a457600354600260003373ffffffffffffffffffffffffffffffffffffffff1673ffffffffffffffffffffffffffffffffffffffff1681526020019081526020016000205410156107f7576040517f08c379a00000000000000000000000000000000000000000000000000000000081526004016107ee90611b1f565b60405180910390fd5b600354600260003373ffffffffffffffffffffffffffffffffffffffff1673ffffffffffffffffffffffffffffffffffffffff1681526020019081526020016000206000828254610848919061175f565b925050819055503373ffffffffffffffffffffffffffffffffffffffff167fcb97f678197099af4070ae1877f6e23ae7f39c83f03c5f841423542e89d2303a6003546040516108979190611061565b60405180910390a26108c2565b6000801b600080888152602001908152602001600020600101819055505b857fbc3c0e7347af80bfe43f887074fc7f1cbf950493435ef5d3c94362c76b2d2e19866040516108f291906118e0565b60405180910390a2505050505050565b60015481565b805182511461094c576040517f08c379a000000000000000000000000000000000000000000000000000000000815260040161094390611b8b565b60405180910390fd5b6000805b82518110156109945782818151811061096c5761096b6118b1565b5b60200260200101518261097f9190611bab565b9150808061098c906118fb565b915050610950565b50803410156109d8576040517f08c379a00000000000000000000000000000000000000000000000000000000081526004016109cf90611c2b565b60405180910390fd5b60005b8351811015610ad85760008482815181106109f9576109f86118b1565b5b602002602001015173ffffffffffffffffffffffffffffffffffffffff16848381518110610a2a57610a296118b1565b5b6020026020010151604051610a3e906117c4565b60006040518083038185875af1925050503d8060008114610a7b576040519150601f19603f3d011682016040523d82523d6000602084013e610a80565b606091505b5050905080610ac4576040517f08c379a0000000000000000000000000000000000000000000000000000000008152600401610abb90611825565b60405180910390fd5b508080610ad0906118fb565b9150506109db565b50505050565b60035481565b60006020528060005260406000206000915090508060000154908060010154908060020154908060030160009054906101000a900460ff16908060030160019054906101000a900460ff16905085565b8060008060008381526020019081526020016000206000015403610b8d576040517f08c379a0000000000000000000000000000000000000000000000000000000008152600401610b849061198f565b60405180910390fd5b60008083815260200190815260200160002060030160019054906101000a900460ff1615610bf0576040517f08c379a0000000000000000000000000000000000000000000000000000000008152600401610be790611c97565b60405180910390fd5b60008083815260200190815260200160002060030160009054906101000a900460ff1615610c53576040517f08c379a0000000000000000000000000000000000000000000000000000000008152600401610c4a90611d03565b60405180910390fd5b600160008084815260200190815260200160002060030160006101000a81548160ff021916908315150217905550817f1ee066b0cc077ae247f731c0ad7cb81d140e8062773445294e6b74944ad455e360405160405180910390a25050565b60003411610cf5576040517f08c379a0000000000000000000000000000000000000000000000000000000008152600401610cec90611d95565b60405180910390fd5b34600260003373ffffffffffffffffffffffffffffffffffffffff1673ffffffffffffffffffffffffffffffffffffffff1681526020019081526020016000206000828254610d449190611bab565b925050819055503373ffffffffffffffffffffffffffffffffffffffff167f543ba50a5eec5e6178218e364b1d0f396157b3c8fa278522c2cb7fd99407d47434604051610d919190611061565b60405180910390a2565b8060008060008381526020019081526020016000206000015403610df4576040517f08c379a0000000000000000000000000000000000000000000000000000000008152600401610deb9061198f565b60405180910390fd5b60008083815260200190815260200160002060030160019054906101000a900460ff1615610e57576040517f08c379a0000000000000000000000000000000000000000000000000000000008152600401610e4e90611e01565b60405180910390fd5b62093a8060008084815260200190815260200160002060020154610e7b9190611bab565b4211610ebc576040517f08c379a0000000000000000000000000000000000000000000000000000000008152600401610eb390611e6d565b60405180910390fd5b600160008084815260200190815260200160002060030160016101000a81548160ff021916908315150217905550817f5cff112f1cb588779b4e6aae6baf0d738747fcf132f0ff202adcec605f9cabdf60405160405180910390a25050565b600080836000015184602001518560400151604051602001610f3f93929190611ef6565b6040516020818303038152906040528051906020012090506000806000888152602001908152602001600020600101549050610f7c828583610f94565b8015610f885750818614155b92505050949350505050565b60008084905060005b845181101561103a576000858281518110610fbb57610fba6118b1565b5b60200260200101519050808310610ffa578083604051602001610fdf929190611f54565b60405160208183030381529060405280519060200120611024565b828160405160200161100d929190611f54565b604051602081830303815290604052805190602001205b9250508080611032906118fb565b915050610f9d565b508281149150509392505050565b6000819050919050565b61105b81611048565b82525050565b60006020820190506110766000830184611052565b92915050565b6000604051905090565b600080fd5b600080fd5b61109981611048565b81146110a457600080fd5b50565b6000813590506110b681611090565b92915050565b6000602082840312156110d2576110d1611086565b5b60006110e0848285016110a7565b91505092915050565b600073ffffffffffffffffffffffffffffffffffffffff82169050919050565b6000611114826110e9565b9050919050565b61112481611109565b811461112f57600080fd5b50565b6000813590506111418161111b565b92915050565b60006020828403121561115d5761115c611086565b5b600061116b84828501611132565b91505092915050565b600080fd5b6000601f19601f8301169050919050565b7f4e487b7100000000000000000000000000000000000000000000000000000000600052604160045260246000fd5b6111c282611179565b810181811067ffffffffffffffff821117156111e1576111e061118a565b5b80604052505050565b60006111f461107c565b905061120082826111b9565b919050565b600067ffffffffffffffff8211156112205761121f61118a565b5b602082029050602081019050919050565b600080fd5b6000819050919050565b61124981611236565b811461125457600080fd5b50565b60008135905061126681611240565b92915050565b600061127f61127a84611205565b6111ea565b905080838252602082019050602084028301858111156112a2576112a1611231565b5b835b818110156112cb57806112b78882611257565b8452602084019350506020810190506112a4565b5050509392505050565b600082601f8301126112ea576112e9611174565b5b81356112fa84826020860161126c565b91505092915050565b60006020828403121561131957611318611086565b5b600082013567ffffffffffffffff8111156113375761133661108b565b5b611343848285016112d5565b91505092915050565b600080fd5b6000606082840312156113675761136661134c565b5b61137160606111ea565b9050600061138184828501611132565b600083015250602061139584828501611132565b60208301525060406113a9848285016110a7565b60408301525092915050565b60008060008060c085870312156113cf576113ce611086565b5b60006113dd878288016110a7565b94505060206113ee87828801611257565b93505060406113ff87828801611351565b92505060a085013567ffffffffffffffff8111156114205761141f61108b565b5b61142c878288016112d5565b91505092959194509250565b600067ffffffffffffffff8211156114535761145261118a565b5b602082029050602081019050919050565b600061147761147284611438565b6111ea565b9050808382526020820190506020840283018581111561149a57611499611231565b5b835b818110156114c357806114af8882611132565b84526020840193505060208101905061149c565b5050509392505050565b600082601f8301126114e2576114e1611174565b5b81356114f2848260208601611464565b91505092915050565b600067ffffffffffffffff8211156115165761151561118a565b5b602082029050602081019050919050565b600061153a611535846114fb565b6111ea565b9050808382526020820190506020840283018581111561155d5761155c611231565b5b835b81811015611586578061157288826110a7565b84526020840193505060208101905061155f565b5050509392505050565b600082601f8301126115a5576115a4611174565b5b81356115b5848260208601611527565b91505092915050565b600080604083850312156115d5576115d4611086565b5b600083013567ffffffffffffffff8111156115f3576115f261108b565b5b6115ff858286016114cd565b925050602083013567ffffffffffffffff8111156116205761161f61108b565b5b61162c85828601611590565b9150509250929050565b61163f81611236565b82525050565b60008115159050919050565b61165a81611645565b82525050565b600060a0820190506116756000830188611052565b6116826020830187611636565b61168f6040830186611052565b61169c6060830185611651565b6116a96080830184611651565b9695505050505050565b600082825260208201905092915050565b7f496e73756666696369656e742062616c616e6365000000000000000000000000600082015250565b60006116fa6014836116b3565b9150611705826116c4565b602082019050919050565b60006020820190508181036000830152611729816116ed565b9050919050565b7f4e487b7100000000000000000000000000000000000000000000000000000000600052601160045260246000fd5b600061176a82611048565b915061177583611048565b925082820390508181111561178d5761178c611730565b5b92915050565b600081905092915050565b50565b60006117ae600083611793565b91506117b98261179e565b600082019050919050565b60006117cf826117a1565b9150819050919050565b7f5472616e73666572206661696c65640000000000000000000000000000000000600082015250565b600061180f600f836116b3565b915061181a826117d9565b602082019050919050565b6000602082019050818103600083015261183e81611802565b9050919050565b7f4261746368206d75737420636f6e7461696e207472616e73616374696f6e7300600082015250565b600061187b601f836116b3565b915061188682611845565b602082019050919050565b600060208201905081810360008301526118aa8161186e565b9050919050565b7f4e487b7100000000000000000000000000000000000000000000000000000000600052603260045260246000fd5b60006020820190506118f56000830184611636565b92915050565b600061190682611048565b91507fffffffffffffffffffffffffffffffffffffffffffffffffffffffffffffffff820361193857611937611730565b5b600182019050919050565b7f426174636820646f6573206e6f74206578697374000000000000000000000000600082015250565b60006119796014836116b3565b915061198482611943565b602082019050919050565b600060208201905081810360008301526119a88161196c565b9050919050565b7f43616e6e6f74207265706f7274206672617564206f6e2061207665726966696560008201527f6420626174636800000000000000000000000000000000000000000000000000602082015250565b6000611a0b6027836116b3565b9150611a16826119af565b604082019050919050565b60006020820190508181036000830152611a3a816119fe565b9050919050565b7f43616e6e6f74207265706f7274206672617564206f6e20612066696e616c697a60008201527f6564206261746368000000000000000000000000000000000000000000000000602082015250565b6000611a9d6028836116b3565b9150611aa882611a41565b604082019050919050565b60006020820190508181036000830152611acc81611a90565b9050919050565b7f496e73756666696369656e742062616c616e636520666f722070656e616c7479600082015250565b6000611b096020836116b3565b9150611b1482611ad3565b602082019050919050565b60006020820190508181036000830152611b3881611afc565b9050919050565b7f4d69736d61746368656420617272617973000000000000000000000000000000600082015250565b6000611b756011836116b3565b9150611b8082611b3f565b602082019050919050565b60006020820190508181036000830152611ba481611b68565b9050919050565b6000611bb682611048565b9150611bc183611048565b9250828201905080821115611bd957611bd8611730565b5b92915050565b7f496e73756666696369656e74204554482073656e740000000000000000000000600082015250565b6000611c156015836116b3565b9150611c2082611bdf565b602082019050919050565b60006020820190508181036000830152611c4481611c08565b9050919050565b7f42617463682069732066696e616c697a65640000000000000000000000000000600082015250565b6000611c816012836116b3565b9150611c8c82611c4b565b602082019050919050565b60006020820190508181036000830152611cb081611c74565b9050919050565b7f426174636820616c726561647920766572696669656400000000000000000000600082015250565b6000611ced6016836116b3565b9150611cf882611cb7565b602082019050919050565b60006020820190508181036000830152611d1c81611ce0565b9050919050565b7f4465706f736974206d7573742062652067726561746572207468616e207a657260008201527f6f00000000000000000000000000000000000000000000000000000000000000602082015250565b6000611d7f6021836116b3565b9150611d8a82611d23565b604082019050919050565b60006020820190508181036000830152611dae81611d72565b9050919050565b7f426174636820616c72656164792066696e616c697a6564000000000000000000600082015250565b6000611deb6017836116b3565b9150611df682611db5565b602082019050919050565b60006020820190508181036000830152611e1a81611dde565b9050919050565b7f4368616c6c656e676520706572696f64206e6f74206f76657200000000000000600082015250565b6000611e576019836116b3565b9150611e6282611e21565b602082019050919050565b60006020820190508181036000830152611e8681611e4a565b9050919050565b60008160601b9050919050565b6000611ea582611e8d565b9050919050565b6000611eb782611e9a565b9050919050565b611ecf611eca82611109565b611eac565b82525050565b6000819050919050565b611ef0611eeb82611048565b611ed5565b82525050565b6000611f028286611ebe565b601482019150611f128285611ebe565b601482019150611f228284611edf565b602082019150819050949350505050565b6000819050919050565b611f4e611f4982611236565b611f33565b82525050565b6000611f608285611f3d565b602082019150611f708284611f3d565b602082019150819050939250505056fea2646970667358221220f76b55afa2fd59daaae3a56ef4e30faa3244fa6079962c48458c0be0b2aecbbb64736f6c63430008130033",
  "linkReferences": {},
  "deployedLinkReferences": {}
}